:020000040800F2
:1000000000000220CD0D0008250700082707000882
:10001000290700082B0700082D0700080000000032
:100020000000000000000000000000002F07000892
:1000300031070008000000003307000835070008FA
:100040001D0E00081D0E00081D0E00081D0E0008E4
:100050001D0E00081D0E00081D0E00081D0E0008D4
:100060001D0E00081D0E00081D0E00081D0E0008C4
:100070001D0E00081D0E00081D0E00081D0E0008B4
:100080001D0E00081D0E00081D0E00081D0E0008A4
:100090001D0E00081D0E00081D0E00081D0E000894
:1000A0003D0700084D0700085D0700086D070008C0
:1000B0001D0E00081D0E00081D0E00081D0E000874
:1000C0001D0E00081D0E00081D0E00081D0E000864
:1000D0001D0E00081D0E00081D0E00081D0E000854
:1000E0001D0E00081D0E00081D0E00081D0E000844
:1000F0001D0E00081D0E00081D0E00081D0E000834
:100100001D0E00081D0E00081D0E00081D0E000823
:100110001D0E00081D0E00081D0E00081D0E000813
:100120001D0E00081D0E00081D0E00081D0E000803
:100130001D0E000800000000000000001D0E000859
:100140001D0E00081D0E00081D0E00081D0E0008E3
:100150001D0E00081D0E00081D0E00081D0E0008D3
:100160001D0E00081D0E00081D0E00081D0E0008C3
:100170001D0E00081D0E00081D0E000800000000E6
:10018000000000001D0E000800000000000000003C
:100190001D0E000800000000000000001D0E0008F9
:1001A0000000000000000000000000001D0E00081C
:1001B0001D0E00081D0E00081D0E00081D0E000873
:0401C0001D0E000808
:1001C40010B5054C237833B9044B13B10448AFF38D
:1001D40000800123237010BD1000002000000000E7
:1001E400D825000808B5034B1BB103490348AFF3F6
:1001F400008008BD0000000014000020D82500087D
:1002040053B94AB9002908BF00281CBF4FF0FF3179
:100214004FF0FF3000F06AB9ADF1080C6DE904CE7F
:1002240000F006F8DDF804E0DDE9022304B07047CD
:100234002DE9F047089D0C46002B4ED194468C4581
:100244008646B2FA82F262D94AB1C2F120039140E1
:1002540020FA03F30CFA02FC194300FA02FE4FEAF7
:100264001C471FFA8CF6B1FBF7F44FEA1E4307FB59
:10027400141143EA014304FB06F199420AD91CEB29
:10028400030304F1FF3080F01281994240F20F81A0
:10029400023C6344591A1FFA8EF3B1FBF7F007FBD3
:1002A400101143EA014300FB06F69E420AD91CEBF7
:1002B400030300F1FF3180F0FC809E4240F2F9809C
:1002C400634402389B1B40EA044000211DB1D34023
:1002D4000022C5E90032BDE8F0878B4205D90DB193
:1002E400C5E9000100210846F5E7B3FA83F10029C6
:1002F40046D1A34202D39042C0F0F080861A64EB48
:1003040003030120002DE6D0C5E90063E3E7002ADA
:1003140040F09080A1EB0C044FEA1C481FFA8CF7C4
:100324000121B4FBF8F64FEA1E4308FB164443EAE6
:10033400044307FB06F0984208D91CEB030306F1BB
:10034400FF3402D2984200F2CD8026461C1A1FFACE
:100354008EF3B4FBF8F008FB104443EA044300FBBB
:1003640007F79F4208D91CEB030300F1FF3402D2C4
:100374009F4200F2B0802046DB1B40EA0640A5E71E
:10038400C1F120068B4022FA06F71F4320FA06FC2F
:1003940004FA01F343EA0C03F44000FA01F8380CC0
:1003A4004FEA1349B4FBF0FE1FFA87FC00FB1E441E
:1003B40049EA04440EFB0CF9A14502FA01F20AD9F8
:1003C4003C190EF1FF3A80F08480A14540F281800F
:1003D400AEF1020E3C44A4EB09041FFA83F9B4FB0A
:1003E400F0F300FB134449EA044403FB0CFCA4456A
:1003F40007D93C1903F1FF3067D2A44565D9023B04
:100404003C4443EA0E40A0FB0293A4EB0C049C4240
:10041400CE469C4651D34ED055B1B8EB0E0364EB97
:100424000C0404FA06F6CB401E43CC40C5E9006434
:10043400002150E7C2F1200320FA03F10CFA02FC78
:1004440024FA03F394400C434FEA1C4800FA02FEDA
:100454001FFA8CF7B3FBF8F008FB1031230C43EAC6
:10046400014300FB07F1994208D91CEB030300F197
:10047400FF362CD299422AD9023863445B1AA4B2BB
:10048400B3FBF8F108FB113344EA034401FB07F31F
:10049400A34208D91CEB040401F1FF3613D2A34292
:1004A40011D902396444E41A41EA004139E70446A7
:1004B400F0E6084606E7C845AED2B9EB020E63EB98
:1004C400070C0138A8E73146EDE7034699E73046C3
:1004D400D4E7D6467FE7634402384DE70646234611
:1004E40008460FE7023E634430E700BF704700BF91
:1004F400F0B58BB0002405940694079408940994ED
:100504000194314B1A6B42F004021A631A6B02F025
:1005140004020192019A02941A6B42F080021A6357
:100524001A6B02F080020292029A03941A6B42F050
:1005340001021A631A6B02F001020392039A0494F3
:100544001A6B42F002021A631B6B03F0020304935A
:10055400049B1E4D22462021284600F021FE1C4EFD
:1005640022464FF47041304600F01AFE4FF4005317
:1005740005934FF404130693079405A9154800F056
:100584001BFD0C230593022306930794032308936E
:100594000723099305A9284600F00EFD202305939F
:1005A400012706970794089405A9284600F004FD3E
:1005B4004FF47043059306970794089405A93046B1
:1005C40000F0FAFC0BB0F0BD00380240000002401D
:1005D400000402400008024072B6FEE700B595B080
:1005E4003422002107A801F063FF00230293039340
:1005F40004930593069300931F4A116C41F08051B4
:100604001164126C02F080520092009A01931B490B
:100614000A6822F4404242F480420A600A6802F402
:1006240040420192019A0222079201210A9110216B
:100634000B910D920E930F914FF4A8731093042312
:1006440011931292139207A800F04EFF80B90F2362
:10065400029302210391002304934FF480520592E4
:10066400069302A800F0A2FD20B915B05DF804FBC2
:10067400FFF7B2FFFFF7B0FF003802400070004000
:1006840008B500F0F1FBFFF7A9FFFFF731FF00F019
:10069400C5F900F03BFA00F091FA00F0E9FA00F035
:1006A40041FB0D4C00224FF45041204600F078FDF0
:1006B40001224FF40051204600F072FD074C204601
:1006C40001F0FAF90821204601F046FD2268536C36
:1006D40043F400435364FEE7000402400401002095
:1006E40000B583B0002100910C4B5A6C42F4804257
:1006F4005A645A6C02F480420092009A01911A6C76
:1007040042F080521A641B6C03F080530193019BE6
:10071400072000F017FC03B05DF804FB003802402A
:10072400FEE7FEE7FEE7FEE7FEE770477047704727
:1007340008B500F0B3FB08BD08B5024801F000FAA3
:1007440008BD00BF0401002008B5024801F0F8F913
:1007540008BD00BF0401002008B5024801F0F0F90B
:1007640008BD00BF0401002008B5024801F0E8F903
:1007740008BD00BF040100207047000002681A4B46
:100784009A4200D0704710B582B00024019403F55A
:100794009C335A6C42F001025A645B6C03F001030F
:1007A4000193019B22462146182000F0DDFB18200E
:1007B40000F0EAFB22462146192000F0D5FB19205F
:1007C40000F0E2FB224621461A2000F0CDFB1A205D
:1007D40000F0DAFB224621461B2000F0C5FB1B205B
:1007E40000F0D2FB02B010BD0000014030B58DB066
:1007F40000230793089309930A930B930368B3F1B7
:10080400804F07D03E4A934226D03E4A934257D067
:100814000DB030BD0021009103F50E331A6C42F087
:1008240001021A641A6C02F001020092009A01910A
:100834001A6B42F001021A631B6B03F0010301936C
:10084400019B032307930223089301230B9307A916
:100854002D4800F0B1FBDBE7002402942B4B1A6C0B
:1008640042F002021A641A6C02F002020292029A24
:1008740003941A6B42F001021A631A6B02F001022C
:100884000392039A04941A6B42F004021A631B6BDA
:1008940003F004030493049B802307930225089523
:1008A4000B9507A9184800F087FB40230793089588
:1008B40009940A940B9507A9154800F07DFBA7E756
:1008C40000210591114B1A6C42F004021A641A6C4F
:1008D40002F004020592059A06911A6B42F0020294
:1008E4001A631B6B03F002030693069BC023079352
:1008F400022308930B9307A9064800F05DFB87E7E2
:10090400000400400008004000000240003802409B
:10091400000802400004024000B58BB00023059398
:1009240006930793089309930368364A93420BD0BE
:10093400B3F1804F20D0344A934235D0334A9342A6
:1009440048D00BB05DF804FB00230193304B1A6BC5
:1009540042F001021A631B6B03F001030193019B34
:100964004FF480630593022306930123099305A999
:10097400284800F021FBE4E700230293244B1A6B80
:1009840042F002021A631B6B03F002030293029B00
:100994004FF480630593022306930123099305A969
:1009A4001D4800F009FBCCE700230393184B1A6B96
:1009B40042F002021A631B6B03F002030393039BCE
:1009C4000123059302230693099305A9124800F015
:1009D400F3FAB6E7002304930D4B1A6B42F00202BC
:1009E4001A631B6B03F002030493049B4FF480739C
:1009F400059302230693099305A9074800F0DCFA3E
:100A04009FE700BF000001400004004000080040D0
:100A140000380240000002400004024010B596B0C5
:100A2400002412941394149415941094119409941A
:100A34000A940B940C940D940E940F942022214646
:100A440001A801F035FD2F482F4B03605323436069
:100A5400846040F2E733C36004614461846101F05F
:100A640087F900283BD14FF48053129312A92548EB
:100A740001F0E4FA002835D1224801F0A5F9002854
:100A840033D100231093119310A91E4801F0E6FB03
:100A940000282DD1602309934FF4FA730A9300239D
:100AA4000B930C930D930E930F93082209A91548E9
:100AB40001F04AFAF8B900230193029303930493D3
:100AC40005934FF400520692089301A90D4801F0D2
:100AD4000BFC98B90B48FFF71FFF16B010BDFFF7CA
:100AE4007BFDC0E7FFF778FDC6E7FFF775FDC8E7B4
:100AF400FFF772FDCEE7FFF76FFDDCE7FFF76CFD54
:100B0400E8E700BF040100200000014000B593B0F5
:100B1400242200210DEB020001F0CAFC00230793FC
:100B2400089300930193029303930493059306930C
:100B340021484FF080420260436083604FF0FF32EF
:100B4400C2600361836101F03FF948BB012209924D
:100B540000230A930B920C930D930E930F92109310
:100B6400119309A9144801F05BF9E0B90023079334
:100B7400089307A9104801F071FBB8B960230093EA
:100B84000023019302930493082269460A4801F062
:100B9400DBF970B90848FFF7BFFE13B05DF804FB3A
:100BA400FFF71AFDD2E7FFF717FDDFE7FFF714FDA4
:100BB400E4E7FFF711FDEDE7BC00002000B593B0BA
:100BC400242200210DEB020001F072FC00230793A4
:100BD400089300930193029303930493059306935C
:100BE4002148224A0260436083604FF6FF72C2606C
:100BF4000361836101F0E8F848BB012209920023F4
:100C04000A930B920C930D930E930F9210931193DE
:100C140009A9154801F004F9E0B9002307930893E2
:100C240007A9114801F01AFBB8B960230093002307
:100C3400019302930493082269460B4801F084F956
:100C440070B90948FFF768FE13B05DF804FBFFF7BD
:100C5400C3FCD2E7FFF7C0FCDFE7FFF7BDFCE4E726
:100C6400FFF7BAFCEDE700BF740000200004004069
:100C740000B593B0242200210DEB020001F018FC12
:100C8400002307930893009301930293039304931F
:100C9400059306932148224A0260436083604FF61D
:100CA400FF72C2600361836101F08EF848BB0122C8
:100CB400099200230A930B920C930D930E930F92B7
:100CC4001093119309A9154801F0AAF8E0B900237B
:100CD4000793089307A9114801F0C0FAB8B9602333
:100CE40000930023019302930493082269460B485E
:100CF40001F02AF970B90948FFF70EFE13B05DF848
:100D040004FBFFF769FCD2E7FFF766FCDFE7FFF7B8
:100D140063FCE4E7FFF760FCEDE700BF2C00002074
:100D24000008004008B50A480A4B03604FF4E13359
:100D3400436000238360C36003610C2242618361CA
:100D4400C36101F085FB00B908BDFFF745FCFBE773
:100D54004C0100200048004000B589B000230393F3
:100D640004930593069307930268154B9A4202D0A5
:100D740009B05DF804FB0021019103F5F8331A6C06
:100D840042F480221A641A6C02F480220192019ABD
:100D940002911A6B42F004021A631B6B03F0040302
:100DA4000293029B4FF4846303930223049303236B
:100DB40006930723079303A9024800F0FDF8D7E739
:100DC4000048004000080240DFF834D0FFF7D4FCAC
:100DD4000C480D490D4A002302E0D458C450043392
:100DE400C4188C42F9D30A4A0A4C002301E0136068
:100DF4000432A242FBD301F063FBFFF741FC7047CE
:100E04000000022000000020100000201C26000822
:100E14001000002030030020FEE7000010B5044657
:100E24000E4B1A784FF47A73B3FBF2F30C4A106842
:100E3400B0FBF3F000F0ACF868B90F2C01D9012035
:100E44000AE0002221464FF0FF3000F08DF8054BF8
:100E54001C60002000E0012010BD00BF0400002041
:100E6400000000200800002008B50B4B1A6842F46B
:100E740000721A601A6842F480621A601A6842F4B6
:100E840080721A60032000F05DF80020FFF7C6FFAF
:100E9400FFF726FC002008BD003C0240034A11680D
:100EA400034B1B780B441360704700BF9401002070
:100EB40004000020014B1868704700BF9401002013
:100EC400002807DB00F01F02400901239340024A77
:100ED40042F82030704700BF00E100E0002808DB42
:100EE4000901C9B200F1604000F5614080F80013C7
:100EF400704700F00F000901C9B2014B1954704743
:100F040014ED00E000B500F00700C0F1070CBCF1DF
:100F1400040F28BF4FF0040C031D062B0FD9C31E6A
:100F24004FF0FF3E0EFA0CF021EA000199400EFA50
:100F340003FE22EA0E0241EA02005DF804FB0023EC
:100F4400EEE70000074AD36823F4E0631B041B0C9C
:100F5400000200F4E060034343F0BF6343F4003352
:100F6400D360704700ED00E010B50446054BD86827
:100F7400C0F30220FFF7C6FF01462046FFF7AEFF8D
:100F840010BD00BF00ED00E008B5FFF799FF08BDF4
:100F94000138B0F1807F0BD24FF0E0235861054A4D
:100FA400F02182F823100020986107221A6170470B
:100FB4000120704700ED00E000230F2B00F2E680D3
:100FC40030B583B068E085684FEA430E032404FA21
:100FD4000EF425EA0405CC6804FA0EF42C4384606C
:100FE400446824EA02044A68C2F300129A40224385
:100FF40042605FE0DC08083450F8242003F0070561
:10100400AD004FF00F0E0EFA05FE22EA0E0E0A692D
:10101400AA4042EA0E0240F824205FE0062200E0E3
:10102400002202FA0EF22A430234594D45F82420D4
:10103400584A94686FEA0C0224EA0C05D1F804E0DB
:101044001EF4801F01D04CEA0405524CA560E468EC
:1010540002EA0405D1F804E01EF4001F01D04CEAB2
:1010640004054C4CE560646802EA0405D1F804E028
:101074001EF4003F01D04CEA0405464C6560246828
:1010840022404D6815F4803F01D04CEA0402414CE3
:10109400226001330F2B77D801229A400C6804EAAE
:1010A400020C32EA0404F4D14C6804F00304013C59
:1010B400012C88D94A6802F00302032A09D0C468C3
:1010C4005D000322AA4024EA02048A68AA4022435B
:1010D400C2604A6802F00302022A8BD004684FEA15
:1010E400430E032202FA0EF224EA02044A6802F0D2
:1010F400030202FA0EF2224302604A6812F4403FED
:10110400C7D000220192244A546C44F480445464AD
:10111400526C02F480420192019A9C08A51C1C4A5C
:1011240052F8255003F0030E4FEA8E0E0F2202FAF6
:101134000EF225EA0205194A90423FF471AF02F516
:101144008062904216D002F58062904214D002F57B
:101154008062904212D002F58062904210D002F573
:10116400806290420ED002F5806290423FF456AF06
:10117400072256E7012254E7022252E7032250E7EE
:1011840004224EE705224CE703B030BD704700BF90
:1011940000380140003C0140003802400000024099
:1011A4000AB181617047090481617047002800F029
:1011B4009B8070B50D4604464F4B1B6803F00F032C
:1011C4008B4208D2CBB24C4A1370136803F00F035E
:1011D4008B4240F08B80236813F0020F17D013F07A
:1011E400040F04D0454A936843F4E05393602368A2
:1011F40013F0080F04D0414A936843F460439360AA
:101204003E4A936823F0F003A1680B43936023687C
:1012140013F0010F32D06368012B21D09A1E012AEA
:1012240025D9364A126812F0020F61D033498A6810
:1012340022F0030213438B60FFF73CFE06462F4B5C
:101244009B6803F00C036268B3EB820F16D0FFF7C0
:1012540031FE801B41F288339842F0D9032042E0EA
:10126400264A126812F4003FE0D101203BE0234AF1
:10127400126812F0007FD9D1012034E01E4B1B68A4
:1012840003F00F03AB4207D9EAB21B4B1A701B6879
:1012940003F00F03AB422DD1236813F0040F06D0E3
:1012A400164A936823F4E053E1680B439360236880
:1012B40013F0080F07D0114A936823F4604321699F
:1012C40043EAC103936000F047F80C4B9B68C3F3F7
:1012D40003130B4AD35CD8400A4B18600A4B1868B6
:1012E400FFF79CFD002070BD012070470120FAE744
:1012F4000120F8E70120F6E7003C024000380240F4
:10130400F82500080000002008000020014B1868A0
:10131400704700BF0000002008B5FFF7F7FF044B3B
:101324009B68C3F38223034AD35CD84008BD00BF43
:1013340000380240F025000808B5FFF7E7FF044B2A
:101344009B68C3F34233034AD35CD84008BD00BF53
:1013540000380240F025000808B5604B9B6803F094
:101364000C03082B07D00C2B5FD0042B01D05C4856
:1013740008BD5C48FCE7594B5A6802F03F025B68C1
:1013840013F4800F2CD0554B5868C0F388104FEAE3
:10139400401CBCEB000C6EEB0E0E4FEA8E1343EABE
:1013A4009C634FEA8C11B1EB0C0163EB0E03DB0081
:1013B40043EA5173C90011EB000C43F100035902D5
:1013C40000234FEA4C2041EADC51FEF719FF434B5E
:1013D4005B68C3F3014301335B00B0FBF3F0C7E781
:1013E4003E4B5868C0F388104FEA401CBCEB000C1D
:1013F4006EEB0E0E4FEA8E1343EA9C634FEA8C1198
:10140400B1EB0C0163EB0E03DB0043EA5173C9003B
:1014140011EB000C43F10003990200234FEA8C20E6
:1014240041EA9C51FEF7ECFED1E72C4B5A6802F0DE
:101434003F025B6813F4800F2AD0284B5868C0F32E
:1014440088104FEA401CBCEB000C6EEB0E0E4FEA0A
:101454008E1343EA9C634FEA8C11B1EB0C0163EBEE
:101464000E03DB0043EA5173C90011EB000C43F196
:101474000003590200234FEA4C2041EADC51FEF7F5
:10148400BFFE164B5B68C3F30273B0FBF3F06FE768
:10149400124B5868C0F388104FEA401CBCEB000C98
:1014A4006EEB0E0E4FEA8E1343EA9C634FEA8C11E7
:1014B400B1EB0C0163EB0E03DB0043EA5173C9008B
:1014C40011EB000C43F10003990200234FEA8C2036
:1014D40041EA9C51FEF794FED3E700BF0038024076
:1014E4000024F40000127A00002800F0018270B594
:1014F40082B00446036813F0010F41D0994B9B68F6
:1015040003F00C03042B32D0964B9B6803F00C03BE
:10151400082B27D0934B9B6803F00C030C2B59D05A
:101524006368B3F5803F5BD0B3F5A02F5ED08D4BDD
:101534001A6822F480321A601A6822F480221A602F
:101544006368002B5CD0FFF7B5FC0546854B1B6830
:1015540013F4003F14D1FFF7ADFC401B6428F5D908
:101564000320CCE17F4B5B6813F4800FD2D07D4B1A
:101574001B6813F4003F03D06368002B00F0BA81AA
:10158400236813F0020F60D0764B9B6813F00C0FA6
:101594004AD0744B9B6803F00C03082B3FD0714B6B
:1015A4009B6803F00C030C2B69D0E368002B75D007
:1015B4006D4B01221A60FFF77DFC0546694B1B68E1
:1015C40013F0020F61D1FFF775FC401B0228F5D917
:1015D400032094E1634B5B6813F4800FA0D0C6E74B
:1015E400604A136843F480331360A9E75D4B1A68BB
:1015F40042F480221A601A6842F480321A609FE72B
:10160400FFF758FC0546574B1B6813F4003FB7D04F
:10161400FFF750FC401B6428F5D903206FE1514BC0
:101624005B6813F4800FBAD14E4B1B6813F0020FA2
:1016340003D0E368012B40F05F814A4A136823F02A
:10164400F803216943EAC1031360236813F0080F08
:1016540049D06369002B33D0434B0122C3F8802E59
:10166400FFF728FC05463F4B5B6F13F0020F3AD19E
:10167400FFF720FC401B0228F5D903203FE1394B3A
:101684005B6813F4800F90D1CEE7364A136823F0D9
:10169400F803216943EAC1031360D6E7324B002201
:1016A4001A60FFF707FC05462E4B1B6813F0020F68
:1016B400CBD0FFF7FFFB401B0228F5D903201EE126
:1016C400294B0022C3F8802EFFF7F4FB0546254B77
:1016D4005B6F13F0020F06D0FFF7ECFB401B0228F0
:1016E400F5D903200BE1236813F0040F76D01D4BCA
:1016F4001B6C13F0805F33D100230193194B1A6CD8
:1017040042F080521A641B6C03F080530193019BD6
:101714000125164B1B6813F4807F29D0A368012B85
:101724003AD0052B3ED00F4B1A6F22F001021A67F4
:101734001A6F22F004021A67A368002B3CD0FFF74B
:10174400B9FB0646074B1B6F13F0020F45D1FFF799
:10175400B1FB801B41F288339842F3D90320CEE0D9
:101764000025D6E7003802400000474200700040E0
:101774006B4A136843F480731360FFF79BFB0646C0
:10178400674B1B6813F4807FC8D1FFF793FB801B62
:101794000228F5D90320B2E0624A136F43F0010333
:1017A4001367C9E75F4B1A6F42F004021A671A6F96
:1017B40042F001021A67BFE7FFF77CFB0646594B6C
:1017C4001B6F13F0020F08D0FFF774FB801B41F26C
:1017D40088339842F3D9032091E0EDB9A369002B33
:1017E40000F08C804F4A926802F00C02082A54D010
:1017F400022B17D04C4B00221A66FFF75BFB044602
:10180400484B1B6813F0007F45D0FFF753FB001BC8
:101814000228F5D9032072E0424A136C23F0805366
:101824001364DBE7404B00221A66FFF743FB0546CF
:101834003C4B1B6813F0007F06D0FFF73BFB401BBB
:101844000228F5D903205AE0E369226A1343626A45
:1018540043EA8213A26A5208013A43EA0243E26A63
:1018640043EA0263226B43EA02732E4A53602E4B0F
:1018740001221A66FFF71EFB04462A4B1B6813F06D
:10188400007F06D1FFF716FB001B0228F5D90320C1
:1018940035E0002033E0002031E0012B31D0214B32
:1018A4005B6803F48001E26991422CD103F03F02AA
:1018B400216A8A4229D1616A47F6C0721A40B2EBA2
:1018C400811F24D103F44031A26A5208013AB1EBDA
:1018D400024F1ED103F07062E16AB2EB016F1AD1BC
:1018E40003F0E043226BB3EB027F16D1002006E045
:1018F40001207047012002E0012000E0002002B036
:1019040070BD0120FBE70120F9E70120F7E7012082
:10191400F5E70120F3E70120F1E70120EFE700BF3D
:1019240000700040003802400000474230B4036AAF
:10193400026A22F0010202624268846924F0730C94
:101944000C6844EA0C0423F0020C8B6843EA0C0391
:10195400114DA84203D005F58065A84205D123F0B6
:101964000803CD682B4323F004030B4DA84203D096
:1019740005F58065A84207D122F440724D6945EA15
:10198400020C8A6942EA0C02426084614A6842633A
:10199400036230BC704700BF0000014030B4036AEA
:1019A400026A22F4807202624268C46924F0730CF1
:1019B4000C6844EA0C0523F400738C6843EA04239E
:1019C400114CA04203D004F58064A04206D123F454
:1019D4000063CC6843EA042323F480630A4CA042E6
:1019E40003D004F58064A04207D122F440524C692C
:1019F40042EA04128C6942EA04124260C5614A68F0
:101A0400C263036230BC70470000014030B4036A13
:101A1400026A22F4805202624468C26922F4E642F5
:101A24000D6842EA052223F400538D6843EA053326
:101A3400094DA84203D005F58065A84204D124F4D9
:101A440080444D6944EA85144460C2614A68026472
:101A5400036230BC704700BF0000014010B4036A49
:101A6400046A24F001040462846924F0F00C4CEA52
:101A7400021223F00A030B438261036210BC704715
:101A840010B4036A046A24F010040462846924F420
:101A9400704C4CEA023223F0A00343EA0113826142
:101AA400036210BC7047836823F070030B4343F058
:101AB400070383607047000090F83D30DBB2012BD0
:101AC40032D1022380F83D300368194A934220D072
:101AD400B3F1804F1DD0A2F57C42934219D002F598
:101AE4008062934215D002F58062934211D002F5D0
:101AF400784293420DD002F57052934209D0A2F578
:101B04009432934205D01A6842F001021A60002010
:101B140070479A6802F00702062A07D01A6842F052
:101B240001021A60002070470120704700207047AE
:101B34000000014070477047704770477047704716
:101B440070B504460368DE681D6915F0020F10D0F5
:101B540016F0020F0DD06FF002021A610123037711
:101B640003689B6913F0030F5ED0FFF7E6FF0023C1
:101B7400237715F0040F12D016F0040F0FD023684A
:101B84006FF004021A610223237723689B6913F41C
:101B9400407F4FD02046FFF7D0FF0023237715F076
:101BA400080F12D016F0080F0FD023686FF0080248
:101BB4001A61042323772368DB6913F0030F40D0F1
:101BC4002046FFF7BAFF0023237715F0100F12D039
:101BD40016F0100F0FD023686FF010021A6108235B
:101BE40023772368DB6913F4407F31D02046FFF765
:101BF400A4FF0023237715F0010F02D016F0010F84
:101C04002DD115F0800F02D016F0800F2FD115F0D2
:101C1400400F02D016F0400F31D115F0200F02D042
:101C240016F0200F33D170BDFFF786FF2046FFF773
:101C340085FF9CE72046FFF77FFF2046FFF77EFFE6
:101C4400ABE72046FFF778FF2046FFF777FFBAE7B8
:101C54002046FFF771FF2046FFF770FFC9E72368AE
:101C64006FF001021A612046FFF765FFC9E7236898
:101C74006FF080021A61204600F060FBC7E723681A
:101C84006FF040021A612046FFF759FFC5E7236849
:101C94006FF020021A61204600F04FFBC3E70000FA
:101CA4000368324A904212D0B0F1804F0FD0A2F5AF
:101CB4007C4290420BD002F58062904207D002F53C
:101CC4008062904203D002F57842904203D123F01F
:101CD40070034A681343254A90422AD0B0F1804FDA
:101CE40027D0A2F57C42904223D002F58062904234
:101CF4001FD002F5806290421BD002F578429042D8
:101D040017D002F57052904213D002F580629042CF
:101D14000FD002F5806290420BD0A2F59832904227
:101D240007D002F58062904203D002F580629042AF
:101D340003D123F44073CA68134323F080034A6930
:101D440013438A68C2620A688262084A904203D0D6
:101D540002F58062904201D10A690263026842F08E
:101D640004020260012242610360704700000140E6
:101D740040B310B5044690F83D30F3B1022384F823
:101D84003D30214651F8040BFFF78AFF012384F804
:101D9400463084F83E3084F83F3084F8403084F88C
:101DA400413084F8423084F8433084F8443084F875
:101DB400453084F83D30002010BD80F83C30FEF7FB
:101DC400DDFCDBE70120704740B310B5044690F812
:101DD4003D30F3B1022384F83D30214651F8040B21
:101DE400FFF75EFF012384F8463084F83E3084F820
:101DF4003F3084F8403084F8413084F8423084F82D
:101E0400433084F8443084F8453084F83D30002071
:101E140010BD80F83C30FEF7E9FCDBE70120704799
:101E2400002856D070B50D46044690F83D30002B7E
:101E34004AD0022384F83D302268936823F4804317
:101E440023F007039360214651F8040BFFF728FFA2
:101E540021688B688A690E6A2868184322F44072E4
:101E640022F00302AB68D5F818C043EA0C231343ED
:101E740023F47C4323F0FC03EA68D5F81CC042EA4F
:101E84000C221A432B6A1B03D5F810C043EA0C1327
:101E9400134326F0AA066A686D6942EA05123243C2
:101EA400886021688B6123681A62012384F84630B4
:101EB40084F83E3084F83F3084F8423084F843306C
:101EC40084F83D30002070BD80F83C30FFF732FECE
:101ED400AFE701207047000030B4036A026A22F0C1
:101EE400100202624468826922F4E6420D6842EA02
:101EF400052223F020038D6843EA0513114DA842FF
:101F040003D005F58065A84206D123F08003CD688F
:101F140043EA051323F040030A4DA84203D005F514
:101F24008065A84207D124F440644D6944EA8504DD
:101F34008D6944EA8504446082614A68826303626D
:101F440030BC70470000014038B590F83C30012B9C
:101F540066D004460D46012380F83C300C2A5AD83A
:101F6400DFE802F0075959591B5959593059595941
:101F740044000068FFF7DAFC2268936943F0080321
:101F840093612268936923F004039361226893693F
:101F940029690B43936100203EE00068FFF79CFF32
:101FA4002268936943F4006393612268936923F47C
:101FB4008063936122689369296943EA01239361E9
:101FC400002029E00068FFF7E9FC2268D36943F0A8
:101FD4000803D3612268D36923F00403D361226820
:101FE400D36929690B43D361002015E00068FFF72A
:101FF4000DFD2268D36943F40063D3612268D36979
:1020040023F48063D3612268D369296943EA0123F5
:10201400D361002000E00120002384F83C3038BD67
:102024000220FCE710B4846824F47F4C42EA0322C3
:102034000A4342EA0C02826010BC704790F83C30BC
:10204400012B78D010B50446012380F83C300223DC
:1020540080F83D300268936823F47F4323F07703CC
:1020640093600B68602B4CD029D8402B54D00CD9EA
:10207400502B22D1CA6849680068FFF7EFFC502151
:102084002068FFF710FD002005E0202B0DD009D9B2
:10209400302B0AD00120012384F83D30002384F83A
:1020A4003C3010BD0BB1102B05D119462068FFF749
:1020B400FAFC0020EFE70120EDE70120EBE7B3F5A0
:1020C400805F34D0B3F5005F0CD1CB684A6889686F
:1020D4000068FFF7A7FF2268936843F48043936086
:1020E4000020D8E7702B24D1CB684A68896800683F
:1020F400FFF798FF2268936843F07703936000200A
:10210400C9E7CA6849680068FFF7BAFC602120681B
:10211400FFF7C9FC0020BEE7CA6849680068FFF7FA
:102124009DFC40212068FFF7BEFC0020B3E700209F
:10213400B1E70120AFE70220704701F01F014FF023
:10214400010C0CFA01FC036A23EA0C030362036A20
:102154008A4013430362704710B5044608460029B9
:1021640042D194F83E30DBB2013B18BF0123002B6F
:102174006ED1002851D1022384F83E300122014659
:102184002068FFF7DAFF2368334A934203D002F54D
:102194008062934203D15A6C42F400425A64236829
:1021A4002D4A934249D0B3F1804F46D0A2F57C42E8
:1021B400934242D002F5806293423ED002F580629F
:1021C40093423AD002F57842934236D002F57052E7
:1021D400934232D0A2F5943293422ED01A6842F040
:1021E40001021A60002032E0042908D008290DD029
:1021F40094F84130DBB2013B18BF0123B7E794F8F0
:102204003F30DBB2013B18BF0123B0E794F8403004
:10221400DBB2013B18BF0123A9E7042805D0082835
:1022240007D0022384F84130A8E7022384F83F3022
:10223400A4E7022384F84030A0E79A6802F007027A
:10224400062A07D01A6842F001021A60002010BD65
:102254000120FCE70020FAE70000014090F83C2050
:10226400012A3CD010B40346012280F83C2002220B
:1022740080F83D2002685068946820F0700C08686B
:1022840040EA0C0050601A68164882421AD0B2F133
:10229400804F17D0A0F57C40824213D000F58060B7
:1022A40082420FD000F5806082420BD000F5784066
:1022B400824207D000F57050824203D0A0F59430DA
:1022C400824204D124F080044968214391600122B0
:1022D40083F83D20002083F83C0010BC70470220A6
:1022E400704700BF00000140024690F83C30012BCB
:1022F40021D0012380F83C30CB6823F440738868F4
:10230400034323F480634868034323F400630868A9
:10231400034323F480530869034323F400534869B7
:10232400034323F48043C9690B4311684B640020C1
:1023340082F83C00704702207047704770470000E5
:1023440010B504460268136923F44053C1680B4373
:102354001361836802691A4343691A43C3691A43C0
:102364000168CB6823F4164323F00C031343CB60BA
:102374000268536923F4407381690B435361036812
:10238400314A934206D002F58062934202D0FEF7AE
:10239400C3FF01E0FEF7D0FFE369B3F5004F29D096
:1023A4000021031849411B1841F10001C90041EA09
:1023B4005371DB00181863684FEA83024FEA937382
:1023C40041F10001FDF71CFF204AA2FB003149093D
:1023D400642303FB11031B013233A2FB03235B09B8
:1023E40003F0F00202EB011203F00F03216813441F
:1023F4008B6010BD0023021843EB0301121841F156
:102404000001C90041EA5271D200101841F10001E3
:10241400626892185B41FDF7F3FE0C4AA2FB00319F
:102424004909642303FB1103DB003233A2FB0323BA
:102434005B095A0002F4F87202EB011203F007037D
:10244400216813448B60D4E7001001401F85EB51D1
:1024540060B310B5044690F8413013B3242384F8D4
:1024640041302268D36823F40053D3602046FFF739
:1024740067FF2268136923F4904313612268536948
:1024840023F02A0353612268D36843F40053D360D2
:1024940000206064202384F8413084F84230606373
:1024A40010BD80F84030FEF757FCD7E70120704795
:1024B40002440346934200D1704703F8011BF9E735
:1024C40070B50D4D0D4C641BA4100026A64209D115
:1024D4000B4D0C4C00F07EF8641BA4100026A642A1
:1024E40005D170BD55F8043B98470136EEE755F821
:1024F400043B98470136F2E710260008102600082E
:10250400102600081826000870477047024B13B1C4
:10251400024800F005B870470000000031250008AB
:10252400002301461A46184600F014B838B5074D82
:10253400074C641BA4101CB9BDE8384000F050B827
:10254400013C55F824309847F5E700BF18260008E9
:102554001C2600082DE9F047DFF86CA00646DAF8DF
:10256400000098460F469146FFF7CEFF174B1C68B4
:102574000CB9174C1C606568DAF800001F2D05DDE6
:10258400FFF7C3FF4FF0FF30BDE8F0879EB104EBC7
:1025940085010122C1F88890D4F88831AA401343F8
:1025A400C4F88831022EC1F8088102BFD4F88C31F6
:1025B4001343C4F88C316B1C0235636044F82570F6
:1025C400FFF7A3FF0020DFE70C0000209C010020A0
:1025D400A0010020F8B500BFF8BC08BC9E467047B7
:0C25E400F8B500BFF8BC08BC9E4670476C
:1025F00000000000010203040000000000000000D1
:082600000102030406070809AA
:082608002CDCFF7F0100000043
:0826100011250008E901000892
:04261800C5010008F0
:10261C000024F400010000001000000098010020CC
:0400000508000DCD15
:00000001FF
