:020000040800F2
:1000000000000220C90F00084D0900084F09000830
:1000100051090008530900085509000800000000B4
:100020000000000000000000000000005709000868
:1000300059090008000000005B0900085D0900087C
:1000400019100008191000081910000819100008EC
:1000500019100008191000081910000819100008DC
:1000600019100008191000081910000819100008CC
:1000700019100008191000081910000819100008BC
:1000800019100008191000081910000819100008AC
:10009000191000081910000819100008191000089C
:1000A0006509000875090008850900089509000818
:1000B000191000081910000819100008191000087C
:1000C000191000081910000819100008191000086C
:1000D000191000081910000819100008A5090008D7
:1000E000191000081910000819100008191000084C
:1000F000191000081910000819100008191000083C
:10010000191000081910000819100008191000082B
:10011000191000081910000819100008191000081B
:10012000191000081910000819100008191000080B
:10013000191000080000000000000000191000085D
:1001400019100008191000081910000819100008EB
:1001500019100008191000081910000819100008DB
:1001600019100008191000081910000819100008CB
:1001700019100008191000081910000800000000EC
:10018000000000001910000800000000000000003E
:1001900019100008000000000000000019100008FD
:1001A000000000000000000000000000191000081E
:1001B000191000081910000819100008191000087B
:0401C000191000080A
:1001C40010B5054C237833B9044B13B10448AFF38D
:1001D40000800123237010BD1000002000000000E7
:1001E4005C2D000808B5034B1BB103490348AFF36A
:1001F400008008BD00000000140000205C2D0008F1
:1002040053B94AB9002908BF00281CBF4FF0FF3179
:100214004FF0FF3000F06AB9ADF1080C6DE904CE7F
:1002240000F006F8DDF804E0DDE9022304B07047CD
:100234002DE9F047089D0C46002B4ED194468C4581
:100244008646B2FA82F262D94AB1C2F120039140E1
:1002540020FA03F30CFA02FC194300FA02FE4FEAF7
:100264001C471FFA8CF6B1FBF7F44FEA1E4307FB59
:10027400141143EA014304FB06F199420AD91CEB29
:10028400030304F1FF3080F01281994240F20F81A0
:10029400023C6344591A1FFA8EF3B1FBF7F007FBD3
:1002A400101143EA014300FB06F69E420AD91CEBF7
:1002B400030300F1FF3180F0FC809E4240F2F9809C
:1002C400634402389B1B40EA044000211DB1D34023
:1002D4000022C5E90032BDE8F0878B4205D90DB193
:1002E400C5E9000100210846F5E7B3FA83F10029C6
:1002F40046D1A34202D39042C0F0F080861A64EB48
:1003040003030120002DE6D0C5E90063E3E7002ADA
:1003140040F09080A1EB0C044FEA1C481FFA8CF7C4
:100324000121B4FBF8F64FEA1E4308FB164443EAE6
:10033400044307FB06F0984208D91CEB030306F1BB
:10034400FF3402D2984200F2CD8026461C1A1FFACE
:100354008EF3B4FBF8F008FB104443EA044300FBBB
:1003640007F79F4208D91CEB030300F1FF3402D2C4
:100374009F4200F2B0802046DB1B40EA0640A5E71E
:10038400C1F120068B4022FA06F71F4320FA06FC2F
:1003940004FA01F343EA0C03F44000FA01F8380CC0
:1003A4004FEA1349B4FBF0FE1FFA87FC00FB1E441E
:1003B40049EA04440EFB0CF9A14502FA01F20AD9F8
:1003C4003C190EF1FF3A80F08480A14540F281800F
:1003D400AEF1020E3C44A4EB09041FFA83F9B4FB0A
:1003E400F0F300FB134449EA044403FB0CFCA4456A
:1003F40007D93C1903F1FF3067D2A44565D9023B04
:100404003C4443EA0E40A0FB0293A4EB0C049C4240
:10041400CE469C4651D34ED055B1B8EB0E0364EB97
:100424000C0404FA06F6CB401E43CC40C5E9006434
:10043400002150E7C2F1200320FA03F10CFA02FC78
:1004440024FA03F394400C434FEA1C4800FA02FEDA
:100454001FFA8CF7B3FBF8F008FB1031230C43EAC6
:10046400014300FB07F1994208D91CEB030300F197
:10047400FF362CD299422AD9023863445B1AA4B2BB
:10048400B3FBF8F108FB113344EA034401FB07F31F
:10049400A34208D91CEB040401F1FF3613D2A34292
:1004A40011D902396444E41A41EA004139E70446A7
:1004B400F0E6084606E7C845AED2B9EB020E63EB98
:1004C400070C0138A8E73146EDE7034699E73046C3
:1004D400D4E7D6467FE7634402384DE70646234611
:1004E40008460FE7023E634430E700BF704700BF91
:1004F40010B5184C01224FF48051204600F0ACFF97
:1005040000224FF40051204600F0A6FF01224FF4D0
:100514008041204600F0A0FF00224FF40041204615
:1005240000F09AFF04F5806400220121204600F0C7
:1005340093FF01220221204600F08EFF00220421B5
:10054400204600F089FF01220821204600F084FFA4
:1005540010BD00BF0004024010B5184C00224FF437
:100564008051204600F078FF01224FF400512046CC
:1005740000F072FF00224FF48041204600F06CFF2F
:1005840001224FF40041204600F066FF04F5806428
:1005940001221146204600F05FFF0022022120467E
:1005A40000F05AFF01220421204600F055FF0022EA
:1005B4000821204600F050FF10BD00BF0004024097
:1005C40010B5184C00224FF48051204600F044FF2F
:1005D40000224FF40051204600F03EFF00224FF469
:1005E4008041204600F038FF00224FF400412046AD
:1005F40000F032FF04F5806400220121204600F05F
:100604002BFF00220221204600F026FF00220421B5
:10061400204600F021FF00220821204600F01CFFA4
:1006240010BD00BF000402402DE9F0418AB000244F
:10063400059406940794089409940194394B1A6B11
:1006440042F004021A631A6B02F004020192019A46
:1006540002941A6B42F080021A631A6B02F0800251
:100664000292029A03941A6B42F001021A631A6B03
:1006740002F001020392039A04941A6B42F00202FC
:100684001A631B6B03F002030493049B264F224658
:100694000F21384600F0E0FE244E22462021304649
:1006A40000F0DAFEDFF8888022464FF470414046BD
:1006B40000F0D2FE4FF4005305934FF40413069355
:1006C400079405A9384600F0D3FD0F2305930125AF
:1006D40006950794089405A9384600F0C9FD0C2333
:1006E400059302230693079403230893072309938E
:1006F40005A9304600F0BCFD202305930695079418
:10070400089405A9304600F0B3FD4FF470430593F7
:1007140006950794089405A9404600F0A9FD0AB07F
:10072400BDE8F081003802400008024000000240A9
:100734000004024008B5244B834200D008BD234A7C
:10074400137823490B70537803EB8300937803EBFE
:10075400400303EB83035B00DBB24B70D3788B70F5
:100764001079537900EB800003EB4003DBB2CB70CC
:100774000B78DBB2422B1FD0462B21D10020FFF790
:10078400B7FE134B9B78DBB2522B0ED010494B783B
:10079400DBB2104A126893634B78DBB2D363062250
:1007A4000A49094802F033FAC8E7094B5B78DBB21F
:1007B400084A12685363E9E70020FFF7CDFEEEE72D
:1007C400FFF7FEFEEBE700BFA00100203000002091
:1007D4002C0000205801002072B6FEE700B595B049
:1007E4003422002107A802F025FA00230293039380
:1007F4000493059306930093204A116C41F08051B1
:100804001164126C02F080520092009A01931C4908
:100814000A6822F4404242F480420A600A6802F400
:1008240040420192019A0222079201210A91102169
:100834000B910D920E9308230F936423109311923E
:100844001292139207A800F0ABFF98B90F230293FA
:1008540002230393002304934FF4A05305934FF40E
:1008640080530693032102A800F0FCFD20B915B0C3
:100874005DF804FBFFF7B0FFFFF7AEFF003802405E
:100884000070004008B500F0EDFBFFF7A7FFFFF78D
:10089400CBFE00F08DFA00F08DF800F0BBF800F00C
:1008A400EBF800F01FFB00F019F9134C00224FF491
:1008B4005041204600F0D0FD01224FF40051204663
:1008C40000F0CAFD0D4C204601F052FA08212046E2
:1008D40001F09EFD0C21204601F09AFD00212046E6
:1008E40001F096FD0421204601F092FD0622044900
:1008F400044802F08CF9FEE700040240580100208D
:1009040030000020A001002000B583B00021009138
:100914000C4B5A6C42F480425A645A6C02F4804282
:100924000092009A01911A6C42F080521A641B6C76
:1009340003F080530193019B072000F001FC03B0F6
:100944005DF804FB00380240FEE7FEE7FEE7FEE741
:10095400FEE770477047704708B500F09DFB08BD7F
:1009640008B5024801F048FA08BD00BF580100204C
:1009740008B5024801F040FA08BD00BF5801002044
:1009840008B5024801F038FA08BD00BF580100203C
:1009940008B5024801F030FA08BD00BF5801002034
:1009A40008B5024801F0C8FF08BD00BFA00100203F
:1009B4007047000000B58DB02422002103A802F086
:1009C40039F900230193029311484FF080420260E9
:1009D400436083604FF0FF32C2600361836101238F
:1009E40003930593099303A901F076FB50B90023FF
:1009F4000193029301A9064801F08CFD28B90DB0BA
:100A04005DF804FBFFF7E8FEF1E7FFF7E5FEF6E724
:100A14001001002000B58DB02422002103A802F0AB
:100A240009F90023019302931148124A02604360BA
:100A340083604FF6FF72C2600361836101230393F5
:100A44000593099303A901F047FB50B900230193CF
:100A5400029301A9064801F05DFD28B90DB05DF8C7
:100A640004FBFFF7B9FEF1E7FFF7B6FEF6E700BFB8
:100A7400C80000200004004000B58DB024220021ED
:100A840003A802F0D7F80023019302931148124AF5
:100A94000260436083604FF6FF72C260036183614A
:100AA400012303930593099303A901F015FB50B99E
:100AB40000230193029301A9064801F02BFD28B9F4
:100AC4000DB05DF804FBFFF787FEF1E7FFF784FE46
:100AD400F6E700BF800000200008004000B58DB09C
:100AE4002422002103A802F0A5F800230193029315
:100AF4001148124A0260436083604FF0FF32C260C3
:100B040003618361012303930593099303A901F00E
:100B1400E3FA50B900230193029301A9064801F0B6
:100B2400F9FC28B90DB05DF804FBFFF755FEF1E7B9
:100B3400FFF752FEF6E700BF38000020000C00402B
:100B440002681A4B9A4200D0704710B582B0002454
:100B5400019403F59C335A6C42F001025A645B6CB5
:100B640003F001030193019B22462146182000F063
:100B7400F9FA182000F006FB22462146192000F05D
:100B8400F1FA192000F0FEFA224621461A2000F05C
:100B9400E9FA1A2000F0F6FA224621461B2000F05A
:100BA400E1FA1B2000F0EEFA02B010BD0000014093
:100BB40070B590B000230B930C930D930E930F9389
:100BC4000368B3F1804F0BD05B4A934240D05B4A39
:100BD400934271D05A4A934200F08E8010B070BD97
:100BE4000024019403F50E331A6C42F001021A64D6
:100BF4001A6C02F001020192019A02941A6B42F0FB
:100C040001021A631A6B02F001020292029A03941F
:100C14001A6B42F002021A631B6B03F00203039384
:100C2400039B4FF400430B9302260C9601250F956A
:100C34000BA9444800F01CFB4FF400730B930C9673
:100C44000D940E940F950BA93F4800F011FBC5E7D6
:100C5400002404943D4B1A6C42F002021A641A6C8C
:100C640002F002020492049A05941A6B42F0010203
:100C74001A631A6B02F001020592059A06941A6B24
:100C840042F004021A631B6B03F004030693069BF1
:100C940080230B9302250C950F950BA9294800F08E
:100CA400E7FA40230B930C950D940E940F950BA922
:100CB400274800F0DDFA91E700210791234B1A6CD5
:100CC40042F004021A641A6C02F004020792079AB2
:100CD40008911A6B42F002021A631B6B03F00203C1
:100CE4000893089BC0230B9302230C930F930BA927
:100CF400154800F0BDFA71E700210991134B1A6CF5
:100D040042F008021A641A6C02F008020992099A65
:100D14000A911A6B42F001021A631B6B03F0010380
:100D24000A930A9B03230B9302230C930F930BA99F
:100D3400044800F09DFA51E7000400400008004018
:100D4400000C004000000240000402400038024051
:100D54000008024000B587B0002301930293039377
:100D64000493059302680F4B9A4202D007B05DF8D2
:100D740004FB002300930C4B1A6B42F001021A632C
:100D84001B6B03F001030093009B4FF4706301930A
:100D9400022302930123059301A9044800F068FA91
:100DA400E4E700BF000001400038024000000240B8
:100DB40010B596B0002412941394149415941094BE
:100DC400119409940A940B940C940D940E940F941A
:100DD4002022214601A801F02DFF4048404B03602A
:100DE40063234360846040F2E733C3600461446179
:100DF400846101F019F9002855D14FF480531293FE
:100E040012A9364801F076FA00284FD1334801F090
:100E140037F900284DD100231093119310A92F48BE
:100E240001F078FB002847D16023099364230A93D7
:100E340000220B920C920D920E920F9209A9274850
:100E440001F0DEF900283AD1C8230A93042209A943
:100E5400224801F0D5F9002834D14FF4FA730A93EB
:100E6400082209A91D4801F0CBF970BB4FF448735F
:100E74000A930C2209A9194801F0C2F940BB0023C6
:100E8400019302930393049305934FF40052069243
:100E9400089301A9114801F083FBE0B90F48FFF75B
:100EA40059FF16B010BDFFF797FCA6E7FFF794FCB7
:100EB400ACE7FFF791FCAEE7FFF78EFCB4E7FFF772
:100EC4008BFCC1E7FFF788FCC7E7FFF785FCCDE79C
:100ED400FFF782FCD3E7FFF77FFCDFE75801002030
:100EE4000000014008B50A480A4B03604FF416534A
:100EF400436000238360C36003610C224261836109
:100F0400C36101F05FFC00B908BDFFF765FCFBE7B6
:100F1400A001002000480040F0B589B000230393ED
:100F240004930593069307930268234B9A4201D0D6
:100F340009B0F0BD0024009403F5F8331A6C42F4B0
:100F440080221A641A6C02F480220092009A01949E
:100F54001A6B42F004021A631A6B02F00402019243
:100F6400019A02941A6B42F002021A631B6B03F09B
:100F740002030293029B2023039302270497032670
:100F840006960725079503A90C4800F071F94FF45C
:100F940080630393049705940696079503A908486C
:100FA40000F066F922462146272000F0DBF82720CE
:100FB40000F0E8F8BCE700BF004800400008024029
:100FC40000040240DFF834D0FFF7F2FC0C480D496E
:100FD4000D4A002302E0D458C4500433C4188C4290
:100FE400F9D30A4A0A4C002301E013600432A242F6
:100FF400FBD301F027FEFFF745FC704700000220F9
:101004000000002010000020A02D00081000002087
:1010140084030020FEE7000010B504460E4B1A7846
:101024004FF47A73B3FBF2F30C4A1068B0FBF3F09D
:1010340000F0ACF868B90F2C01D901200AE00022B5
:1010440021464FF0FF3000F08DF8054B1C60002066
:1010540000E0012010BD00BF0400002000000020BB
:101064000800002008B50B4B1A6842F400721A609D
:101074001A6842F480621A601A6842F480721A6034
:10108400032000F05DF80020FFF7C6FFFFF73CFCEB
:10109400002008BD003C0240034A1168034B1B7842
:1010A4000B441360704700BFE801002004000020D7
:1010B400014B1868704700BFE8010020002807DBD7
:1010C40000F01F02400901239340024A42F82030F5
:1010D400704700BF00E100E0002808DB0901C9B245
:1010E40000F1604000F5614080F80013704700F0A3
:1010F4000F000901C9B2014B1954704714ED00E007
:1011040000B500F00700C0F1070CBCF1040F28BFC4
:101114004FF0040C031D062B0FD9C31E4FF0FF3EE6
:101124000EFA0CF021EA000199400EFA03FE22EABD
:101134000E0241EA02005DF804FB0023EEE7000022
:10114400074AD36823F4E0631B041B0C000200F479
:10115400E060034343F0BF6343F40033D36070475C
:1011640000ED00E010B50446054BD868C0F302203A
:10117400FFF7C6FF01462046FFF7AEFF10BD00BFD4
:1011840000ED00E008B5FFF799FF08BD0138B0F1A4
:10119400807F0BD24FF0E0235861054AF02182F89A
:1011A40023100020986107221A61704701207047BC
:1011B40000ED00E070B50446866DFFF779FF94F802
:1011C4003530DBB2022B06D080236365002384F81C
:1011D4003430012070BD05462268136823F01603DD
:1011E40013602268536923F080035361236CE3B1D5
:1011F4002268136823F0080313602268136823F03D
:101204000103136023681B6813F0010F11D0FFF76B
:101214004FFF431B052BF5D920236365032084F876
:101224003500002384F83430D4E7A36C002BDFD1DD
:10123400E3E7E26D3F239340B360012384F8353044
:10124400002084F83400C5E790F83530DBB2022B77
:1012540003D08023436501207047052380F835308F
:101264000268136823F00103136000207047000034
:1012740000230F2B00F2E68030B583B068E0856868
:101284004FEA430E032404FA0EF425EA0405CC685D
:1012940004FA0EF42C438460446824EA02044A6885
:1012A400C2F300129A40224342605FE0DC08083433
:1012B40050F8242003F00705AD004FF00F0E0EFA8E
:1012C40005FE22EA0E0E0A69AA4042EA0E0240F81E
:1012D40024205FE0062200E0002202FA0EF22A43F4
:1012E4000234594D45F82420584A94686FEA0C0298
:1012F40024EA0C05D1F804E01EF4801F01D04CEA66
:101304000405524CA560E46802EA0405D1F804E03F
:101314001EF4001F01D04CEA04054C4CE5606468DF
:1013240002EA0405D1F804E01EF4003F01D04CEABF
:101334000405464C6560246822404D6815F4803FDE
:1013440001D04CEA0402414C226001330F2B77D8C0
:1013540001229A400C6804EA020C32EA0404F4D133
:101364004C6804F00304013C012C88D94A6802F05B
:101374000302032A09D0C4685D000322AA4024EAB8
:1013840002048A68AA402243C2604A6802F0030247
:10139400022A8BD004684FEA430E032202FA0EF2AB
:1013A40024EA02044A6802F0030202FA0EF222431B
:1013B40002604A6812F4403FC7D000220192244AD6
:1013C400546C44F480445464526C02F4804201929C
:1013D400019A9C08A51C1C4A52F8255003F0030EE0
:1013E4004FEA8E0E0F2202FA0EF225EA0205194A7E
:1013F40090423FF471AF02F58062904216D002F53C
:101404008062904214D002F58062904212D002F5BC
:101414008062904210D002F5806290420ED002F5B4
:10142400806290423FF456AF072256E7012254E708
:10143400022252E7032250E704224EE705224CE73A
:1014440003B030BD704700BF00380140003C01408C
:1014540000380240000002400AB18161704709046B
:1014640081617047002800F09B8070B50D460446EA
:101474004F4B1B6803F00F038B4208D2CBB24C4A8C
:101484001370136803F00F038B4240F08B802368C2
:1014940013F0020F17D013F0040F04D0454A9368D9
:1014A40043F4E0539360236813F0080F04D0414AD7
:1014B400936843F4604393603E4A936823F0F003D7
:1014C400A1680B439360236813F0010F32D0636863
:1014D400012B21D09A1E012A25D9364A126812F00E
:1014E400020F61D033498A6822F0030213438B60F0
:1014F400FFF7DEFD06462F4B9B6803F00C03626882
:10150400B3EB820F16D0FFF7D3FD801B41F2883373
:101514009842F0D9032042E0264A126812F4003FB0
:10152400E0D101203BE0234A126812F0007FD9D1B8
:10153400012034E01E4B1B6803F00F03AB4207D9B4
:10154400EAB21B4B1A701B6803F00F03AB422DD198
:10155400236813F0040F06D0164A936823F4E0536B
:10156400E1680B439360236813F0080F07D0114A16
:10157400936823F46043216943EAC103936000F054
:1015840047F80C4B9B68C3F303130B4AD35CD84056
:101594000A4B18600A4B1868FFF73EFD002070BD27
:1015A400012070470120FAE70120F8E70120F6E75F
:1015B400003C0240003802407C2D0008000000205E
:1015C40008000020014B1868704700BF000000208D
:1015D40008B5FFF7F7FF044B9B68C3F38223034A64
:1015E400D35CD84008BD00BF00380240742D000809
:1015F40008B5FFF7E7FF044B9B68C3F34233034A84
:10160400D35CD84008BD00BF00380240742D0008E8
:1016140008B5604B9B6803F00C03082B07D00C2B18
:101624005FD0042B01D05C4808BD5C48FCE7594BF3
:101634005A6802F03F025B6813F4800F2CD0554BBC
:101644005868C0F388104FEA401CBCEB000C6EEBEA
:101654000E0E4FEA8E1343EA9C634FEA8C11B1EBF2
:101664000C0163EB0E03DB0043EA5173C90011EB79
:10167400000C43F10003590200234FEA4C2041EAD5
:10168400DC51FEF7BDFD434B5B68C3F301430133FB
:101694005B00B0FBF3F0C7E73E4B5868C0F388101B
:1016A4004FEA401CBCEB000C6EEB0E0E4FEA8E139F
:1016B40043EA9C634FEA8C11B1EB0C0163EB0E031C
:1016C400DB0043EA5173C90011EB000C43F1000342
:1016D400990200234FEA8C2041EA9C51FEF790FDC9
:1016E400D1E72C4B5A6802F03F025B6813F4800F79
:1016F4002AD0284B5868C0F388104FEA401CBCEB32
:10170400000C6EEB0E0E4FEA8E1343EA9C634FEA15
:101714008C11B1EB0C0163EB0E03DB0043EA517354
:10172400C90011EB000C43F10003590200234FEAF6
:101734004C2041EADC51FEF763FD164B5B68C3F3B2
:101744000273B0FBF3F06FE7124B5868C0F38810D4
:101754004FEA401CBCEB000C6EEB0E0E4FEA8E13EE
:1017640043EA9C634FEA8C11B1EB0C0163EB0E036B
:10177400DB0043EA5173C90011EB000C43F1000391
:10178400990200234FEA8C2041EA9C51FEF738FD70
:10179400D3E700BF003802400024F40000127A00AE
:1017A400002800F0018270B582B00446036813F08B
:1017B400010F41D0994B9B6803F00C03042B32D0EA
:1017C400964B9B6803F00C03082B27D0934B9B6824
:1017D40003F00C030C2B59D06368B3F5803F5BD046
:1017E400B3F5A02F5ED08D4B1A6822F480321A60B4
:1017F4001A6822F480221A606368002B5CD0FFF719
:1018040057FC0546854B1B6813F4003F14D1FFF7C2
:101814004FFC401B6428F5D90320CCE17F4B5B6867
:1018240013F4800FD2D07D4B1B6813F4003F03D018
:101834006368002B00F0BA81236813F0020F60D0B4
:10184400764B9B6813F00C0F4AD0744B9B6803F0E3
:101854000C03082B3FD0714B9B6803F00C030C2B3B
:1018640069D0E368002B75D06D4B01221A60FFF735
:101874001FFC0546694B1B6813F0020F61D1FFF78B
:1018840017FC401B0228F5D9032094E1634B5B68E5
:1018940013F4800FA0D0C6E7604A136843F4803382
:1018A4001360A9E75D4B1A6842F480221A601A6833
:1018B40042F480321A609FE7FFF7FAFB0546574B64
:1018C4001B6813F4003FB7D0FFF7F2FB401B6428FA
:1018D400F5D903206FE1514B5B6813F4800FBAD143
:1018E4004E4B1B6813F0020F03D0E368012B40F04A
:1018F4005F814A4A136823F0F803216943EAC1036C
:101904001360236813F0080F49D06369002B33D0A8
:10191400434B0122C3F8802EFFF7CAFB05463F4B19
:101924005B6F13F0020F3AD1FFF7C2FB401B022892
:10193400F5D903203FE1394B5B6813F4800F90D154
:10194400CEE7364A136823F0F803216943EAC1035A
:101954001360D6E7324B00221A60FFF7A9FB054655
:101964002E4B1B6813F0020FCBD0FFF7A1FB401BDB
:101974000228F5D903201EE1294B0022C3F8802E4A
:10198400FFF796FB0546254B5B6F13F0020F06D05D
:10199400FFF78EFB401B0228F5D903200BE12368D7
:1019A40013F0040F76D01D4B1B6C13F0805F33D102
:1019B40000230193194B1A6C42F080521A641B6C79
:1019C40003F080530193019B0125164B1B6813F40C
:1019D400807F29D0A368012B3AD0052B3ED00F4B32
:1019E4001A6F22F001021A671A6F22F004021A67B2
:1019F400A368002B3CD0FFF75BFB0646074B1B6F2D
:101A040013F0020F45D1FFF753FB801B41F28833DB
:101A14009842F3D90320CEE00025D6E700380240EF
:101A240000004742007000406B4A136843F480731F
:101A34001360FFF73DFB0646674B1B6813F4807F7A
:101A4400C8D1FFF735FB801B0228F5D90320B2E08B
:101A5400624A136F43F001031367C9E75F4B1A6FC0
:101A640042F004021A671A6F42F001021A67BFE7D4
:101A7400FFF71EFB0646594B1B6F13F0020F08D0ED
:101A8400FFF716FB801B41F288339842F3D90320F9
:101A940091E0EDB9A369002B00F08C804F4A926865
:101AA40002F00C02082A54D0022B17D04C4B00220F
:101AB4001A66FFF7FDFA0446484B1B6813F0007FD3
:101AC40045D0FFF7F5FA001B0228F5D9032072E090
:101AD400424A136C23F080531364DBE7404B00222B
:101AE4001A66FFF7E5FA05463C4B1B6813F0007FC6
:101AF40006D0FFF7DDFA401B0228F5D903205AE08F
:101B0400E369226A1343626A43EA8213A26A5208AF
:101B1400013A43EA0243E26A43EA0263226B43EA7C
:101B240002732E4A53602E4B01221A66FFF7C0FA45
:101B340004462A4B1B6813F0007F06D1FFF7B8FA5E
:101B4400001B0228F5D9032035E0002033E00020F3
:101B540031E0012B31D0214B5B6803F48001E26951
:101B640091422CD103F03F02216A8A4229D1616A51
:101B740047F6C0721A40B2EB811F24D103F44031FE
:101B8400A26A5208013AB1EB024F1ED103F070620F
:101B9400E16AB2EB016F1AD103F0E043226BB3EBBD
:101BA400027F16D1002006E001207047012002E0E8
:101BB400012000E0002002B070BD0120FBE70120FD
:101BC400F9E70120F7E70120F5E70120F3E7012019
:101BD400F1E70120EFE700BF007000400038024049
:101BE4000000474230B4036A026A22F00102026232
:101BF4004268846924F0730C0C6844EA0C0423F0F2
:101C0400020C8B6843EA0C03114DA84203D005F57E
:101C14008065A84205D123F00803CD682B4323F047
:101C240004030B4DA84203D005F58065A84207D1F3
:101C340022F440724D6945EA020C8A6942EA0C02B8
:101C4400426084614A684263036230BC704700BFEB
:101C54000000014030B4036A026A22F48072026216
:101C64004268C46924F0730C0C6844EA0C0523F43C
:101C740000738C6843EA0423114CA04203D004F59A
:101C84008064A04206D123F40063CC6843EA0423B1
:101C940023F480630A4CA04203D004F58064A0427C
:101CA40007D122F440524C6942EA04128C6942EA98
:101CB40004124260C5614A68C263036230BC704763
:101CC4000000014030B4036A026A22F480520262C6
:101CD4004468C26922F4E6420D6842EA052223F40C
:101CE40000538D6843EA0533094DA84203D005F536
:101CF4008065A84204D124F480444D6944EA8514E3
:101D04004460C2614A680264036230BC704700BF29
:101D14000000014010B4036A046A24F00104046260
:101D2400846924F0F00C4CEA021223F00A030B43FA
:101D34008261036210BC704710B4036A046A24F021
:101D440010040462846924F4704C4CEA023223F0D7
:101D5400A00343EA01138261036210BC70478368E5
:101D640023F070030B4343F00703836070470000C4
:101D740090F83D30DBB2012B32D1022380F83D30A4
:101D84000368194A934220D0B3F1804F1DD0A2F5C5
:101D94007C42934219D002F58062934215D002F539
:101DA4008062934211D002F5784293420DD002F53D
:101DB4007052934209D0A2F59432934205D01A6826
:101DC40042F001021A60002070479A6802F007028C
:101DD400062A07D01A6842F001021A6000207047F0
:101DE4000120704700207047000001407047704791
:101DF400704770477047704770B504460368DE68E3
:101E04001D6915F0020F10D016F0020F0DD06FF0FF
:101E140002021A610123037703689B6913F0030F1D
:101E24005ED0FFF7E6FF0023237715F0040F12D0EE
:101E340016F0040F0FD023686FF004021A61022316
:101E4400237723689B6913F4407F4FD02046FFF724
:101E5400D0FF0023237715F0080F12D016F0080FD7
:101E64000FD023686FF008021A61042323772368D4
:101E7400DB6913F0030F40D02046FFF7BAFF0023BD
:101E8400237715F0100F12D016F0100F0FD023681F
:101E94006FF010021A61082323772368DB6913F4B7
:101EA400407F31D02046FFF7A4FF0023237715F0AD
:101EB400010F02D016F0010F2DD115F0800F02D0C2
:101EC40016F0800F2FD115F0400F02D016F0400FFE
:101ED40031D115F0200F02D016F0200F33D170BD90
:101EE400FFF786FF2046FFF785FF9CE72046FFF7B4
:101EF4007FFF2046FFF77EFFABE72046FFF778FF22
:101F04002046FFF777FFBAE72046FFF771FF204628
:101F1400FFF770FFC9E723686FF001021A612046DA
:101F2400FFF765FFC9E723686FF080021A61204656
:101F340000F060FBC7E723686FF040021A61204697
:101F4400FFF759FFC5E723686FF020021A612046A6
:101F540000F04FFBC3E700000368324A904212D0FE
:101F6400B0F1804F0FD0A2F57C4290420BD002F525
:101F74008062904207D002F58062904203D002F55D
:101F84007842904203D123F070034A681343254AF0
:101F940090422AD0B0F1804F27D0A2F57C429042E3
:101FA40023D002F5806290421FD002F580629042F5
:101FB4001BD002F57842904217D002F5705290423D
:101FC40013D002F5806290420FD002F580629042F5
:101FD4000BD0A2F59832904207D002F5806290426D
:101FE40003D002F58062904203D123F44073CA689F
:101FF400134323F080034A6913438A68C2620A6860
:102004008262084A904203D002F58062904201D174
:102014000A690263026842F004020260012242611A
:10202400036070470000014040B310B5044690F8C7
:102034003D30F3B1022384F83D30214651F8040BBE
:10204400FFF78AFF012384F8463084F83E3084F891
:102054003F3084F8403084F8413084F8423084F8CA
:10206400433084F8443084F8453084F83D3000200F
:1020740010BD80F83C30FEF763FDDBE701207047BC
:1020840040B310B5044690F83D30F3B1022384F810
:102094003D30214651F8040BFFF75EFF012384F81D
:1020A400463084F83E3084F83F3084F8403084F879
:1020B400413084F8423084F8433084F8443084F862
:1020C400453084F83D30002010BD80F83C30FFF7E7
:1020D4008DFEDBE701207047002856D070B50D4611
:1020E400044690F83D30002B4AD0022384F83D305A
:1020F4002268936823F4804323F007039360214606
:1021040051F8040BFFF728FF21688B688A690E6A6F
:102114002868184322F4407222F00302AB68D5F811
:1021240018C043EA0C23134323F47C4323F0FC0339
:10213400EA68D5F81CC042EA0C221A432B6A1B0336
:10214400D5F810C043EA0C13134326F0AA066A68B4
:102154006D6942EA05123243886021688B61236805
:102164001A62012384F8463084F83E3084F83F3004
:1021740084F8423084F8433084F83D30002070BD48
:1021840080F83C30FEF714FDAFE7012070470000F3
:1021940030B4036A026A22F010020262446882695F
:1021A40022F4E6420D6842EA052223F020038D68FA
:1021B40043EA0513114DA84203D005F58065A842F2
:1021C40006D123F08003CD6843EA051323F04003CE
:1021D4000A4DA84203D005F58065A84207D124F42E
:1021E40040644D6944EA85048D6944EA8504446089
:1021F40082614A688263036230BC70470000014018
:1022040038B590F83C30012B66D004460D460123C6
:1022140080F83C300C2A5AD8DFE802F007595959A3
:102224001B5959593059595944000068FFF7DAFCD1
:102234002268936943F0080393612268936923F049
:10224400040393612268936929690B439361002015
:102254003EE00068FFF79CFF2268936943F4006343
:1022640093612268936923F480639361226893697C
:10227400296943EA01239361002029E00068FFF7FC
:10228400E9FC2268D36943F00803D3612268D36967
:1022940023F00403D3612268D36929690B43D36112
:1022A400002015E00068FFF70DFD2268D36943F4B0
:1022B4000063D3612268D36923F48063D361226805
:1022C400D369296943EA0123D361002000E0012096
:1022D400002384F83C3038BD0220FCE710B4846845
:1022E40024F47F4C42EA03220A4342EA0C0282604D
:1022F40010BC704790F83C30012B78D010B50446E0
:10230400012380F83C30022380F83D300268936852
:1023140023F47F4323F0770393600B68602B4CD046
:1023240029D8402B54D00CD9502B22D1CA684968E3
:102334000068FFF7EFFC50212068FFF710FD002034
:1023440005E0202B0DD009D9302B0AD00120012320
:1023540084F83D30002384F83C3010BD0BB1102BC1
:1023640005D119462068FFF7FAFC0020EFE70120A9
:10237400EDE70120EBE7B3F5805F34D0B3F5005F00
:102384000CD1CB684A6889680068FFF7A7FF226808
:10239400936843F4804393600020D8E7702B24D1E2
:1023A400CB684A6889680068FFF798FF22689368D9
:1023B40043F0770393600020C9E7CA68496800685E
:1023C400FFF7BAFC60212068FFF7C9FC0020BEE7D4
:1023D400CA6849680068FFF79DFC40212068FFF740
:1023E400BEFC0020B3E70020B1E70120AFE70220E4
:1023F400704701F01F014FF0010C0CFA01FC036A55
:1024040023EA0C030362036A8A401343036270479E
:1024140010B504460846002942D194F83E30DBB298
:10242400013B18BF0123002B6ED1002851D1022398
:1024340084F83E30012201462068FFF7DAFF236862
:10244400334A934203D002F58062934203D15A6C1B
:1024540042F400425A6423682D4A934249D0B3F1AE
:10246400804F46D0A2F57C42934242D002F580626E
:1024740093423ED002F5806293423AD002F578420C
:10248400934236D002F57052934232D0A2F5943280
:1024940093422ED01A6842F001021A60002032E002
:1024A400042908D008290DD094F84130DBB2013B4F
:1024B40018BF0123B7E794F83F30DBB2013B18BFE4
:1024C4000123B0E794F84030DBB2013B18BF01238D
:1024D400A9E7042805D0082807D0022384F841304E
:1024E400A8E7022384F83F30A4E7022384F84030AD
:1024F400A0E79A6802F00702062A07D01A6842F099
:1025040001021A60002010BD0120FCE70020FAE758
:102514000000014090F83C20012A3CD010B403464E
:10252400012280F83C20022280F83D200268506895
:10253400946820F0700C086840EA0C0050601A6837
:10254400164882421AD0B2F1804F17D0A0F57C40D1
:10255400824213D000F5806082420FD000F5806083
:1025640082420BD000F57840824207D000F57050CB
:10257400824203D0A0F59430824204D124F0800436
:10258400496821439160012283F83D20002083F8AB
:102594003C0010BC70470220704700BF000001409F
:1025A400024690F83C30012B21D0012380F83C30C6
:1025B400CB6823F440738868034323F4806348683A
:1025C400034323F400630868034323F48053086936
:1025D400034323F400534869034323F48043C96944
:1025E4000B4311684B64002082F83C0070470220C2
:1025F400704770477047026802F10C0353E8003FCC
:1026040023F490730C3242E800310029F3D10268BC
:1026140002F1140353E8003F23F00103143242E8AB
:1026240000310029F3D1036B012B05D0202380F85E
:102634004230002303637047026802F10C0353E83D
:10264400003F23F010030C3242E800310029F3D19B
:10265400ECE790F84130DBB2212B01D00220704727
:102664008368B3F5805F17D0036A5A1C02621A7834
:1026740003685A60C38C9BB2013B9BB2C3844BB9C1
:102684000268D36823F08003D3600268D36843F000
:102694004003D360002070470369002BE4D1036A30
:1026A4001B880268C3F308035360036A023303629E
:1026B400E0E7000010B504460268136923F44053B0
:1026C400C1680B431361836802691A4343691A435F
:1026D400C3691A430168CB6823F4164323F00C033F
:1026E4001343CB600268536923F4407381690B433D
:1026F40053610368314A934206D002F580629342E3
:1027040002D0FEF765FF01E0FEF772FFE369B3F55F
:10271400004F29D00021031849411B1841F1000141
:10272400C90041EA5371DB00181863684FEA830259
:102734004FEA937341F10001FDF762FD204AA2FBC9
:1027440000314909642303FB11031B013233A2FB4B
:1027540003235B0903F0F00202EB011203F00F0301
:10276400216813448B6010BD0023021843EB03015E
:10277400121841F10001C90041EA5271D200101847
:1027840041F10001626892185B41FDF739FD0C4A82
:10279400A2FB00314909642303FB1103DB0032333C
:1027A400A2FB03235B095A0002F4F87202EB011244
:1027B40003F00703216813448B60D4E70010014041
:1027C4001F85EB5160B310B5044690F8413013B344
:1027D400242384F841302268D36823F40053D3605F
:1027E4002046FFF767FF2268136923F490431361BF
:1027F4002268536923F02A0353612268D36843F49F
:102804000053D36000206064202384F8413084F8AE
:102814004230606310BD80F84030FEF77DFBD7E79F
:1028240001207047704708B50168CA6822F0400269
:10283400CA60202280F84120FFF7F4FF002008BD81
:10284400704708B5806B0023C385FFF7F9FF08BD07
:10285400704790F84230DBB2222B69D18368B3F51C
:10286400805F4FD0826AB3F5805F04D0002B56D1CD
:102874000369002B53D103685B681370836A0133C7
:102884008362C38D9BB2013B9BB2C385002B51D1A4
:1028940000B583B00268D36823F02003D3600268D4
:1028A400D36823F48073D3600268536923F001036F
:1028B4005361202380F8423000234363036B012BD0
:1028C40033D100230363026802F10C0353E8003F91
:1028D40023F010030C3242E800310029F3D10368DD
:1028E4001A6812F0100F06D0002201921A680192A1
:1028F4005B680193019B818DFFF7AAFF002003B061
:102904005DF804FB0269002AACD1826A03685B6843
:10291400C3F308031380836A02338362B1E7036855
:102924005B6803F07F031370A8E7FDF703FFE5E797
:10293400022070470020704710B582B00446026838
:102944001368D068516913F00F0F09D113F0200FE9
:102954000CD010F0200F09D02046FFF77AFF16E0C4
:1029640011F0010115D110F4907F12D1216B0129CE
:1029740079D013F0800F03D010F0800F40F0218144
:1029840013F0400F03D010F0400F40F01E8102B04E
:1029940010BD13F0010F06D010F4807F03D0626CD9
:1029A40042F00102626413F0040F04D019B1626CA6
:1029B40042F00202626413F0020F04D019B1626C97
:1029C40042F00402626413F0080F07D010F0200FE5
:1029D40000D119B1626C42F008026264626C002A90
:1029E400D5D013F0200F02D010F0200F29D1236886
:1029F4005B6903F04003626C12F0080F00D163B30B
:102A04002046FFF7F8FD23685B6913F0400F20D0E0
:102A1400226802F1140353E8003F23F04003143208
:102A240042E800310029F3D1E36B73B1694A1A65B6
:102A3400E06BFEF709FC0028A9D0E06B036D984712
:102A4400A5E72046FFF705FFD1E72046FFF7F8FE8C
:102A54009DE72046FFF7F4FE99E72046FFF7F0FED6
:102A64000023636493E713F0100F82D010F0100F6B
:102A74003FF47FAF002301931368019353680193DC
:102A8400019B536913F0400F5FD0E26B13685B68DE
:102A94009BB2002B4AD0A18D994247D9E385D369D3
:102AA400B3F5807F37D0226802F10C0353E8003F6E
:102AB40023F480730C3242E800310029F3D12268F8
:102AC40002F1140353E8003F23F00103143242E8F7
:102AD40000310029F3D1226802F1140353E8003FC6
:102AE40023F04003143242E800310029F3D12023BB
:102AF40084F8423000232363226802F10C0353E874
:102B0400003F23F010030C3242E800310029F3D1D6
:102B1400E06BFEF74FFB02236363A18DE38D9BB251
:102B2400C91A89B22046FFF793FE30E7A18D994276
:102B34007FF42DAFD369B3F5807F7FF428AF0223F0
:102B440063632046FFF784FE21E7A18DE38D9BB2EA
:102B5400C91A89B2E38D9BB2002B3FF418AF002948
:102B64003FF415AF226802F10C0353E8003F23F44D
:102B740090730C3242E800300028F3D1226802F14D
:102B8400140353E8003F23F00103143242E80030F9
:102B94000028F3D1202384F84230002323632268E1
:102BA40002F10C0353E8003F23F010030C3242E817
:102BB40000300028F3D1022363632046FFF748FE68
:102BC400E5E62046FFF745FDE1E62046FFF72BFE4C
:102BD400DDE600BF4728000881628285C2850023A4
:102BE4004364222380F84230036923B10268D36826
:102BF40043F48073D3600268536943F00103536163
:102C04000268D36843F02003D3600020704708B5FE
:102C140090F84230DBB2202B08D149B10AB9012027
:102C240008BD00230363FFF7D7FFF9E70220F7E7A6
:102C34000120F5E702440346934200D1704703F8AC
:102C4400011BF9E770B50D4D0D4C641BA410002653
:102C5400A64209D10B4D0C4C00F07EF8641BA41065
:102C64000026A64205D170BD55F8043B98470136AD
:102C7400EEE755F8043B98470136F2E7942D000837
:102C8400942D0008942D00089C2D0008704770476F
:102C9400024B13B1024800F005B870470000000071
:102CA400B52C0008002301461A46184600F014B853
:102CB40038B5074D074C641BA4101CB9BDE8384057
:102CC40000F050B8013C55F824309847F5E700BFB0
:102CD4009C2D0008A02D00082DE9F047DFF86CA01A
:102CE4000646DAF8000098460F469146FFF7CEFFF5
:102CF400174B1C680CB9174C1C606568DAF80000A7
:102D04001F2D05DDFFF7C3FF4FF0FF30BDE8F0874F
:102D14009EB104EB85010122C1F88890D4F8883172
:102D2400AA401343C4F88831022EC1F8088102BFB7
:102D3400D4F88C311343C4F88C316B1C02356360B6
:102D440044F82570FFF7A3FF0020DFE70C00002004
:102D5400F0010020F4010020F8B500BFF8BC08BC65
:102D64009E467047F8B500BFF8BC08BC9E46704745
:102D74000000000001020304000000000000000045
:082D840001020304060708091F
:082D8C00A8D4FF7F0100000044
:082D9400952C0008E90100087C
:042D9C00C501000865
:102DA0000024F4000100000010000000EC010020ED
:0400000508000FC917
:00000001FF
